:100000000C9462000C948A000C948A000C948A0070
:100010000C948A000C948A000C948A000C948A0038
:100020000C948A000C948A000C948A000C948A0028
:100030000C948A000C948A000C948A000C948A0018
:100040000C944D020C948A000C948A000C948A0043
:100050000C948A000C948A000C948A000C948A00F8
:100060000C948A000C948A000000000024002700F1
:100070002A0000000000250028002B0000000000DE
:1000800023002600290004040404040404040202DA
:100090000202020203030303030301020408102007
:1000A0004080010204081020010204081020000012
:1000B0000008000201000003040700000000000027
:1000C0000000040411241FBECFEFD8E0DEBFCDBF77
:1000D00011E0A0E0B1E0ECE5F9E002C005900D927E
:1000E000A430B107D9F721E0A4E0B1E001C01D922E
:1000F000AD32B207E1F710E0C2E6D0E004C02197CC
:10010000FE010E947004C136D107C9F70E94970210
:100110000C94AC040C940000833081F028F48130FE
:1001200099F08230A9F008958730A9F08830C9F09D
:100130008430B1F4809180008F7D03C08091800075
:100140008F7780938000089584B58F7784BD08955C
:1001500084B58F7DFBCF8091B0008F778093B00006
:1001600008958091B0008F7DF9CFCF93DF93282F32
:1001700030E0F901E255FF4F8491F901E656FF4F57
:10018000D491F901EA57FF4FC491CC23A1F081111A
:100190000E948C00EC2FF0E0EE0FFF1FE458FF4FA1
:1001A000A591B491EC91ED2381E090E009F480E019
:1001B000DF91CF91089580E090E0FACF1F93CF9325
:1001C000DF93282F30E0F901E255FF4F8491F901C8
:1001D000E656FF4FD491F901EA57FF4FC491CC2363
:1001E000A9F0162F81110E948C00EC2FF0E0EE0F89
:1001F000FF1FEE58FF4FA591B4918FB7F894EC9183
:10020000111108C0D095DE23DC938FBFDF91CF9111
:100210001F910895DE2BF8CFCF93DF93EC018091EF
:100220001B0190911C01029749F4C130D10509F4DA
:100230003BC06CF560E0209709F437C080911B014A
:1002400090911C01049749F4C130D10509F45CC0B8
:100250000CF037C0209709F442C080911B019091A7
:100260001C01059709F0E5C0CA30D10508F0E1C0CE
:10027000FE01E35CFE4F0C9470049C01A801B901DF
:10028000CF01EA01EC01F301FF0110021702C230B5
:10029000D105A9F060E0C330D10581F680911F013E
:1002A0000E94DE0060E006C061E080911F010E94B4
:1002B000DE0061E0809121010E94DE00BFCF61E09D
:1002C000EDCFC230D10539F1C330D10509F0C5CF2A
:1002D00061E080911F010E94DE0060E022C061E0C9
:1002E00080911F010E94DE0060E0809121010E9448
:1002F000DE0061E0809123010E94DE0060E08091D9
:1003000025010E94DE00A9CF60E080911F010E94BC
:10031000DE0061E0EACF60E080911F010E94DE0014
:1003200061E0809121010E94DE0060E08091230164
:100330000E94DE0061E0E3CF60E080911F010E9437
:10034000DE0061E0809121010E94DE0061E00BC0CF
:1003500060E080911F010E94DE0061E08091210138
:100360000E94DE0060E0809123010E94DE0060E0D8
:1003700010C060E080911F010E94DE0061E080916A
:1003800021010E94DE0060E0809123010E94DE00D6
:1003900061E0809125010E94DE0061E015C060E00F
:1003A00080911F010E94DE0061E0809121010E9486
:1003B000DE0060E0809123010E94DE0061E0809118
:1003C00025010E94DE0060E080912701DF91CF913E
:1003D0000C94DE0061E0E4CF61E080911F010E9497
:1003E000DE0060E0E2CF61E080911F010E94DE004C
:1003F00060E0809121010E94DE0061E0DBCF61E0DE
:1004000080911F010E94DE0060E0809121010E9426
:10041000DE0061E0809123010E94DE0060E0CFCF2A
:1004200061E080911F010E94DE0060E08BCF60E000
:10043000F8CFDF91CF910895CF93DF9390E0FC0147
:10044000E656FF4F24918A579F4FFC0184918823E1
:10045000D1F090E0880F991FFC01E859FF4FA5915A
:10046000B491FC01EE58FF4FC591D491623071F404
:100470009FB7F8943C91822F809583238C93E881D9
:100480002E2B28839FBFDF91CF9108958FB7F894CB
:10049000EC912E2B2C938FBFF6CF1F920F920FB69D
:1004A0000F9211242F933F938F939F93AF93BF93FA
:1004B0008091050190910601A0910701B09108017A
:1004C0003091040123E0230F2D3758F50196A11D2B
:1004D000B11D209304018093050190930601A09320
:1004E0000701B09308018091090190910A01A09140
:1004F0000B01B0910C010196A11DB11D8093090162
:1005000090930A01A0930B01B0930C01BF91AF919E
:100510009F918F913F912F910F900FBE0F901F9041
:10052000189526E8230F0296A11DB11DD2CF78940D
:1005300084B5826084BD84B5816084BD85B58260E8
:1005400085BD85B5816085BD80916E008160809399
:100550006E00109281008091810082608093810002
:100560008091810081608093810080918000816012
:10057000809380008091B10084608093B10080916D
:10058000B00081608093B00080917A008460809395
:100590007A0080917A00826080937A0080917A005C
:1005A000816080937A0080917A00806880937A00DD
:1005B0001092C10062E081E00E941C0262E080E0D3
:1005C0000E941C0262E082E00E941C02412C57E85B
:1005D000552E53E9652E53E0752E6BE4862E912C33
:1005E000A12CB12CCC24C394D12C22242A94322CBB
:1005F00080910201882309F4C2C020911901309131
:100600001A01032E000C440B550BC301B2010E94CA
:100610005104CA01B901A50194010E94510420931B
:1006200015013093160140931701509318018091E2
:10063000000190910101EC0197FF04C0CC27DD2758
:10064000C81BD90B181619060CF07DC0D0921401E6
:10065000C0921301209709F492C03FB7F89480919B
:10066000090190910A01A0910B01B0910C0126B5EE
:10067000A89B05C02F3F19F00196A11DB11D3FBFDA
:10068000BA2FA92F982F8827820F911DA11DB11D68
:1006900042E0880F991FAA1FBB1F4A95D1F74091CE
:1006A000290150912A0160912B0170912C018C013C
:1006B0009D01041B150B260B370B40911501509122
:1006C000160160911701709118010417150726078C
:1006D000370708F4BFCF8093290190932A01A09394
:1006E0002B01B0932C0180911D0190911E0120914E
:1006F0001301309114012130310569F50196909371
:100700001E0180931D012091190130911A01821759
:10071000930721F410921E0110921D0121978091E0
:100720001D0190911E0120911B0130911C016AE076
:1007300070E02530310511F064E070E00E943D0466
:100740000E940C0187CF892B09F484CF10921401E9
:10075000109213017FCF892B41F480911901909160
:100760001A0190931E0180931D0180911D019091AB
:100770001E01019790931E0180931D01CFCF81E050
:100780000E94B5007C01909312018093110180E0DA
:100790000E94B5008C019093100180930F0182E0BC
:1007A0000E94B500EC0190930E0180930D01EF289B
:1007B00061F481E00E94B500892BD9F3D092010148
:1007C000C092000181E080930201012B61F480E07E
:1007D0000E94B500892BD9F33092010120920001CB
:1007E00081E080930201CD2B39F482E00E94B500B4
:1007F000892BD9F31092020180E090E0892B09F453
:10080000F7CE0E940000F4CECF93DF93C3E1D1E096
:100810001B861A86198218821E8A1F8A188E198EC4
:1008200084E290E09F838E838AE090E09D878C87AE
:100830008BE090E09F878E878CE090E0998B888B8F
:100840008DE090E09B8B8A8B61E08AE00E941C0225
:1008500061E08E850E941C0261E088890E941C0272
:1008600061E08A890E941C021D8A1C8A84E090E053
:1008700099878887DF91CF91089597FB072E16F40B
:10088000009407D077FD09D00E94760407FC05D0BC
:100890003EF4909581959F4F0895709561957F4F97
:1008A0000895052E97FB1EF400940E94680457FDDE
:1008B00007D00E948A0407FC03D04EF40C9468040D
:1008C00050954095309521953F4F4F4F5F4F08957C
:1008D00090958095709561957F4F8F4F9F4F0895AC
:1008E000EE0FFF1F0590F491E02D0994AA1BBB1B8E
:1008F00051E107C0AA1FBB1FA617B70710F0A61B20
:10090000B70B881F991F5A95A9F780959095BC0140
:10091000CD010895A1E21A2EAA1BBB1BFD010DC03B
:10092000AA1FBB1FEE1FFF1FA217B307E407F5079F
:1009300020F0A21BB30BE40BF50B661F771F881F7B
:10094000991F1A9469F760957095809590959B0111
:0C095000AC01BD01CF010895F894FFCF69
:04095C000100010095
:00000001FF
