:100000000C9461000C947E000C947E000C947E0095
:100010000C947E000C947E000C947E000C947E0068
:100020000C947E000C947E000C947E000C947E0058
:100030000C947E000C947E000C947E000C947E0048
:100040000C9431010C947E000C947E000C947E0084
:100050000C947E000C947E000C947E000C947E0028
:100060000C947E000C947E00000000002400270009
:100070002A0000000000250028002B0000000000DE
:1000800023002600290004040404040404040202DA
:100090000202020203030303030301020408102007
:1000A0004080010204081020010204081020000012
:1000B0000008000201000003040700000000000027
:1000C000000011241FBECFEFD8E0DEBFCDBF11E08E
:1000D000A0E0B1E0E2E3F5E002C005900D92A430AB
:1000E000B107D9F721E0A4E0B1E001C01D92A7312A
:1000F000B207E1F70E947B010C9497020C94000078
:10010000833081F028F4813099F08230A9F008958D
:100110008730A9F08830C9F08430B1F48091800034
:100120008F7D03C0809180008F7780938000089539
:1001300084B58F7784BD089584B58F7DFBCF809182
:10014000B0008F778093B00008958091B0008F7DCC
:10015000F9CFCF93DF93282F30E0F901E255FF4F1D
:100160008491F901E656FF4FD491F901EA57FF4F08
:10017000C491CC23A1F081110E948000EC2FF0E00B
:10018000EE0FFF1FE458FF4FA591B491EC91ED23C2
:1001900081E090E009F480E0DF91CF91089580E064
:1001A00090E0FACF1F93CF93DF93282F30E0F9012F
:1001B000E255FF4F8491F901E656FF4FD491F901C2
:1001C000EA57FF4FC491CC23A9F0162F81110E944A
:1001D0008000EC2FF0E0EE0FFF1FEE58FF4FA591CF
:1001E000B4918FB7F894EC91111108C0D095DE232B
:1001F000DC938FBFDF91CF911F910895DE2BF8CF55
:10020000CF93DF9390E0FC01E656FF4F24918A578D
:100210009F4FFC0184918823D1F090E0880F991FB3
:10022000FC01E859FF4FA591B491FC01EE58FF4F36
:10023000C591D491623071F49FB7F8943C91822FAC
:10024000809583238C93E8812E2B28839FBFDF9199
:10025000CF9108958FB7F894EC912E2B2C938FBFEC
:10026000F6CF1F920F920FB60F9211242F933F9348
:100270008F939F93AF93BF9380911301909114013B
:10028000A0911501B09116013091120123E0230FC6
:100290002D3758F50196A11DB11D209312018093B1
:1002A000130190931401A0931501B093160180914E
:1002B0000E0190910F01A0911001B09111010196D2
:1002C000A11DB11D80930E0190930F01A093100109
:1002D000B0931101BF91AF919F918F913F912F9159
:1002E0000F900FBE0F901F90189526E8230F0296CF
:1002F000A11DB11DD2CF789484B5826084BD84B530
:10030000816084BD85B5826085BD85B5816085BD10
:1003100080916E00816080936E00109281008091C8
:100320008100826080938100809181008160809350
:100330008100809180008160809380008091B10075
:1003400084608093B1008091B00081608093B000A0
:1003500080917A00846080937A0080917A00826034
:1003600080937A0080917A00816080937A008091F6
:100370007A00806880937A001092C10061E088E082
:100380000E94000161E089E00E94000162E084E0D7
:100390000E94000162E085E00E94000162E086E0C8
:1003A0000E94000162E087E00E94000144244A9418
:1003B000512C90E0692E90E0792EAA24AA94B12CB9
:1003C00080910C0190910D010196B2010E946F0283
:1003D0006C0190930D0180930C0184E00E94A900B0
:1003E0004C0190930B0180930A0185E00E94A900C3
:1003F0007C01909309018093080186E00E94A90086
:100400008C01909307018093060187E00E94A90068
:10041000EC019093050180930401892809F04FC0F5
:100420008091010190910201C816D9060CF047C0D5
:100430008091000161E0811143C060E088E00E948A
:10044000D20061E089E00E94D200EF2891F485E0BB
:100450000E94A900892BD9F380910101909102019A
:100460000A968F3F910509F084F5909302018093DD
:100470000101012B81F486E00E94A900892BD9F3A8
:1004800080910101909102010A9797FD23C09093FA
:10049000020180930101CD2B59F487E00E94A9004D
:1004A000892BD9F38091000191E089278093000185
:1004B0006114710409F484CF0E94000081CF60E0D0
:1004C00088E00E94D20060E0BDCFB0920201A0920D
:1004D0000101CFCF1092020110920101DCCF97FBF6
:1004E000072E16F4009407D077FD09D00E948302EE
:1004F00007FC05D03EF4909581959F4F0895709527
:1005000061957F4F0895AA1BBB1B51E107C0AA1F2D
:10051000BB1FA617B70710F0A61BB70B881F991FA4
:100520005A95A9F780959095BC01CD010895F8944E
:02053000FFCFFB
:0405320001FF0000C5
:00000001FF
